{
  "_format": "hh-sol-artifact-1",
  "contractName": "UdavitGreenHydrogen",
  "sourceName": "contracts/UdavitGreenHydrogen.sol",
  "abi": [
    {
      "inputs": [],
      "stateMutability": "nonpayable",
      "type": "constructor"
    },
    {
      "anonymous": false,
      "inputs": [
        {
          "indexed": true,
          "internalType": "address",
          "name": "user",
          "type": "address"
        },
        {
          "indexed": false,
          "internalType": "uint256",
          "name": "amount",
          "type": "uint256"
        }
      ],
      "name": "SubsidyAdded",
      "type": "event"
    },
    {
      "anonymous": false,
      "inputs": [
        {
          "indexed": true,
          "internalType": "address",
          "name": "from",
          "type": "address"
        },
        {
          "indexed": false,
          "internalType": "uint256",
          "name": "amount",
          "type": "uint256"
        }
      ],
      "name": "SubsidyPoolFunded",
      "type": "event"
    },
    {
      "anonymous": false,
      "inputs": [
        {
          "indexed": true,
          "internalType": "address",
          "name": "user",
          "type": "address"
        },
        {
          "indexed": false,
          "internalType": "uint256",
          "name": "amount",
          "type": "uint256"
        }
      ],
      "name": "SubsidyWithdrawn",
      "type": "event"
    },
    {
      "inputs": [
        {
          "internalType": "address",
          "name": "_user",
          "type": "address"
        },
        {
          "internalType": "uint256",
          "name": "_amount",
          "type": "uint256"
        }
      ],
      "name": "addSubsidy",
      "outputs": [],
      "stateMutability": "nonpayable",
      "type": "function"
    },
    {
      "inputs": [],
      "name": "fundSubsidyPool",
      "outputs": [],
      "stateMutability": "payable",
      "type": "function"
    },
    {
      "inputs": [
        {
          "internalType": "address",
          "name": "_user",
          "type": "address"
        }
      ],
      "name": "getSubsidy",
      "outputs": [
        {
          "internalType": "uint256",
          "name": "",
          "type": "uint256"
        }
      ],
      "stateMutability": "view",
      "type": "function"
    },
    {
      "inputs": [],
      "name": "owner",
      "outputs": [
        {
          "internalType": "address",
          "name": "",
          "type": "address"
        }
      ],
      "stateMutability": "view",
      "type": "function"
    },
    {
      "inputs": [
        {
          "internalType": "address",
          "name": "",
          "type": "address"
        }
      ],
      "name": "subsidies",
      "outputs": [
        {
          "internalType": "uint256",
          "name": "",
          "type": "uint256"
        }
      ],
      "stateMutability": "view",
      "type": "function"
    },
    {
      "inputs": [],
      "name": "totalSubsidyPool",
      "outputs": [
        {
          "internalType": "uint256",
          "name": "",
          "type": "uint256"
        }
      ],
      "stateMutability": "view",
      "type": "function"
    },
    {
      "inputs": [],
      "name": "withdrawRemaining",
      "outputs": [],
      "stateMutability": "nonpayable",
      "type": "function"
    },
    {
      "inputs": [],
      "name": "withdrawSubsidy",
      "outputs": [],
      "stateMutability": "nonpayable",
      "type": "function"
    },
    {
      "stateMutability": "payable",
      "type": "receive"
    }
  ],
  "bytecode": "0x608060405234801561001057600080fd5b50336000806101000a81548173ffffffffffffffffffffffffffffffffffffffff021916908373ffffffffffffffffffffffffffffffffffffffff160217905550610c0c806100606000396000f3fe60806040526004361061007f5760003560e01c80639b5ff27b1161004e5780639b5ff27b14610169578063ec66dfb5146101a6578063ee38db95146101cf578063f815a1dd146101e6576100ed565b80633651e354146100f25780633762296e146100fc57806385cd086c146101135780638da5cb5b1461013e576100ed565b366100ed57346002600082825461009691906107cb565b925050819055503373ffffffffffffffffffffffffffffffffffffffff167fed5c02e0f0d07a9ccb3cf9517e85362ea65704434e9326cab13566274f52fd28346040516100e3919061080e565b60405180910390a2005b600080fd5b6100fa610223565b005b34801561010857600080fd5b506101116102cf565b005b34801561011f57600080fd5b50610128610433565b604051610135919061080e565b60405180910390f35b34801561014a57600080fd5b50610153610439565b604051610160919061086a565b60405180910390f35b34801561017557600080fd5b50610190600480360381019061018b91906108b6565b61045d565b60405161019d919061080e565b60405180910390f35b3480156101b257600080fd5b506101cd60048036038101906101c8919061090f565b610475565b005b3480156101db57600080fd5b506101e4610609565b005b3480156101f257600080fd5b5061020d600480360381019061020891906108b6565b610749565b60405161021a919061080e565b60405180910390f35b60003411610266576040517f08c379a000000000000000000000000000000000000000000000000000000000815260040161025d906109ac565b60405180910390fd5b346002600082825461027891906107cb565b925050819055503373ffffffffffffffffffffffffffffffffffffffff167fed5c02e0f0d07a9ccb3cf9517e85362ea65704434e9326cab13566274f52fd28346040516102c5919061080e565b60405180910390a2565b6000600160003373ffffffffffffffffffffffffffffffffffffffff1673ffffffffffffffffffffffffffffffffffffffff16815260200190815260200160002054905060008111610356576040517f08c379a000000000000000000000000000000000000000000000000000000000815260040161034d90610a18565b60405180910390fd5b6000600160003373ffffffffffffffffffffffffffffffffffffffff1673ffffffffffffffffffffffffffffffffffffffff168152602001908152602001600020819055503373ffffffffffffffffffffffffffffffffffffffff166108fc829081150290604051600060405180830381858888f193505050501580156103e1573d6000803e3d6000fd5b503373ffffffffffffffffffffffffffffffffffffffff167f75ed74204619fa1e474dd4e4e1437bbdb3c9d9fd6baac22b8d8aecd9b194a01a82604051610428919061080e565b60405180910390a250565b60025481565b60008054906101000a900473ffffffffffffffffffffffffffffffffffffffff1681565b60016020528060005260406000206000915090505481565b60008054906101000a900473ffffffffffffffffffffffffffffffffffffffff1673ffffffffffffffffffffffffffffffffffffffff163373ffffffffffffffffffffffffffffffffffffffff1614610503576040517f08c379a00000000000000000000000000000000000000000000000000000000081526004016104fa90610aaa565b60405180910390fd5b600254811115610548576040517f08c379a000000000000000000000000000000000000000000000000000000000815260040161053f90610b16565b60405180910390fd5b80600160008473ffffffffffffffffffffffffffffffffffffffff1673ffffffffffffffffffffffffffffffffffffffff168152602001908152602001600020600082825461059791906107cb565b9250508190555080600260008282546105b09190610b36565b925050819055508173ffffffffffffffffffffffffffffffffffffffff167f368d52fd62d8441c0d881107ab9a18728c50a262f22ebf6aad8328890e0b5946826040516105fd919061080e565b60405180910390a25050565b60008054906101000a900473ffffffffffffffffffffffffffffffffffffffff1673ffffffffffffffffffffffffffffffffffffffff163373ffffffffffffffffffffffffffffffffffffffff1614610697576040517f08c379a000000000000000000000000000000000000000000000000000000000815260040161068e90610aaa565b60405180910390fd5b6000479050600081116106df576040517f08c379a00000000000000000000000000000000000000000000000000000000081526004016106d690610bb6565b60405180910390fd5b60008054906101000a900473ffffffffffffffffffffffffffffffffffffffff1673ffffffffffffffffffffffffffffffffffffffff166108fc829081150290604051600060405180830381858888f19350505050158015610745573d6000803e3d6000fd5b5050565b6000600160008373ffffffffffffffffffffffffffffffffffffffff1673ffffffffffffffffffffffffffffffffffffffff168152602001908152602001600020549050919050565b6000819050919050565b7f4e487b7100000000000000000000000000000000000000000000000000000000600052601160045260246000fd5b60006107d682610792565b91506107e183610792565b92508282019050808211156107f9576107f861079c565b5b92915050565b61080881610792565b82525050565b600060208201905061082360008301846107ff565b92915050565b600073ffffffffffffffffffffffffffffffffffffffff82169050919050565b600061085482610829565b9050919050565b61086481610849565b82525050565b600060208201905061087f600083018461085b565b92915050565b600080fd5b61089381610849565b811461089e57600080fd5b50565b6000813590506108b08161088a565b92915050565b6000602082840312156108cc576108cb610885565b5b60006108da848285016108a1565b91505092915050565b6108ec81610792565b81146108f757600080fd5b50565b600081359050610909816108e3565b92915050565b6000806040838503121561092657610925610885565b5b6000610934858286016108a1565b9250506020610945858286016108fa565b9150509250929050565b600082825260208201905092915050565b7f4d7573742073656e642045544820746f2066756e6420706f6f6c000000000000600082015250565b6000610996601a8361094f565b91506109a182610960565b602082019050919050565b600060208201905081810360008301526109c581610989565b9050919050565b7f4e6f207375627369647920617661696c61626c65000000000000000000000000600082015250565b6000610a0260148361094f565b9150610a0d826109cc565b602082019050919050565b60006020820190508181036000830152610a31816109f5565b9050919050565b7f4f6e6c79206f776e65722063616e2063616c6c20746869732066756e6374696f60008201527f6e00000000000000000000000000000000000000000000000000000000000000602082015250565b6000610a9460218361094f565b9150610a9f82610a38565b604082019050919050565b60006020820190508181036000830152610ac381610a87565b9050919050565b7f4e6f7420656e6f7567682066756e647320696e20706f6f6c0000000000000000600082015250565b6000610b0060188361094f565b9150610b0b82610aca565b602082019050919050565b60006020820190508181036000830152610b2f81610af3565b9050919050565b6000610b4182610792565b9150610b4c83610792565b9250828203905081811115610b6457610b6361079c565b5b92915050565b7f4e6f2066756e647320746f207769746864726177000000000000000000000000600082015250565b6000610ba060148361094f565b9150610bab82610b6a565b602082019050919050565b60006020820190508181036000830152610bcf81610b93565b905091905056fea26469706673582212208f928c0d256f5fc45f643a124d15d1549beb1e19a05e3d6b63dac8bc965ff48764736f6c63430008140033",
  "linkReferences": {},
  "deployedLinkReferences": {}
}